{"contracts/Create2Factory.sol":{"Create2Factory":{"abi":[{"anonymous":false,"inputs":[{"indexed":false,"internalType":"address","name":"addr","type":"address"}],"name":"ContractDeployed","type":"event"},{"anonymous":false,"inputs":[{"indexed":false,"internalType":"uint256","name":"salt","type":"uint256"}],"name":"saltUsed","type":"event"},{"inputs":[{"internalType":"bytes","name":"bytecode","type":"bytes"},{"internalType":"uint256","name":"_salt","type":"uint256"}],"name":"computeAddress","outputs":[{"internalType":"address","name":"","type":"address"}],"stateMutability":"view","type":"function"},{"inputs":[{"internalType":"uint256","name":"_salt","type":"uint256"}],"name":"deploy","outputs":[],"stateMutability":"nonpayable","type":"function"},{"inputs":[{"internalType":"address","name":"_owner","type":"address"}],"name":"getByteCode","outputs":[{"internalType":"bytes","name":"","type":"bytes"}],"stateMutability":"pure","type":"function"},{"inputs":[{"internalType":"bytes","name":"bytecode","type":"bytes"},{"internalType":"uint256","name":"_salt","type":"uint256"}],"name":"predictCreationTime","outputs":[{"internalType":"uint256","name":"","type":"uint256"}],"stateMutability":"view","type":"function"}],"evm":{"bytecode":{"linkReferences":{},"object":"6080604052348015600f57600080fd5b50610b588061001f6000396000f3fe608060405234801561001057600080fd5b506004361061004c5760003560e01c8063247907441461005157806381176c2014610081578063a5e38751146100b1578063ca68675f146100cd575b600080fd5b61006b60048036038101906100669190610372565b6100fd565b604051610078919061042f565b60405180910390f35b61009b600480360381019061009691906105bc565b610170565b6040516100a89190610627565b60405180910390f35b6100cb60048036038101906100c69190610642565b6101ba565b005b6100e760048036038101906100e291906105bc565b61026c565b6040516100f4919061067e565b60405180910390f35b6060600060405180602001610111906102f3565b6020820181038252601f19601f82011660405250905080836040516020016101399190610627565b6040516020818303038152906040526040516020016101599291906106d5565b604051602081830303815290604052915050919050565b60008060ff60f81b3084868051906020012060405160200161019594939291906107da565b6040516020818303038152906040528051906020012090508060001c91505092915050565b60008160001b336040516101cd906102f3565b6101d79190610627565b8190604051809103906000f59050801580156101f7573d6000803e3d6000fd5b5090507f8ffcdc15a283d706d38281f500270d8b5a656918f555de0913d7455e3e6bc1bf816040516102299190610627565b60405180910390a17fb1cfab69c6ca7bae31881558b56c375ec1bdd5c31841376f48ca2ba77296753082604051610260919061067e565b60405180910390a15050565b6000806102798484610170565b90508073ffffffffffffffffffffffffffffffffffffffff1663e6519a356040518163ffffffff1660e01b8152600401602060405180830381865afa1580156102c6573d6000803e3d6000fd5b505050506040513d601f19601f820116820180604052508101906102ea919061083d565b91505092915050565b6102b88061086b83390190565b6000604051905090565b600080fd5b600080fd5b600073ffffffffffffffffffffffffffffffffffffffff82169050919050565b600061033f82610314565b9050919050565b61034f81610334565b811461035a57600080fd5b50565b60008135905061036c81610346565b92915050565b6000602082840312156103885761038761030a565b5b60006103968482850161035d565b91505092915050565b600081519050919050565b600082825260208201905092915050565b60005b838110156103d95780820151818401526020810190506103be565b60008484015250505050565b6000601f19601f8301169050919050565b60006104018261039f565b61040b81856103aa565b935061041b8185602086016103bb565b610424816103e5565b840191505092915050565b6000602082019050818103600083015261044981846103f6565b905092915050565b600080fd5b600080fd5b7f4e487b7100000000000000000000000000000000000000000000000000000000600052604160045260246000fd5b610493826103e5565b810181811067ffffffffffffffff821117156104b2576104b161045b565b5b80604052505050565b60006104c5610300565b90506104d1828261048a565b919050565b600067ffffffffffffffff8211156104f1576104f061045b565b5b6104fa826103e5565b9050602081019050919050565b82818337600083830152505050565b6000610529610524846104d6565b6104bb565b90508281526020810184848401111561054557610544610456565b5b610550848285610507565b509392505050565b600082601f83011261056d5761056c610451565b5b813561057d848260208601610516565b91505092915050565b6000819050919050565b61059981610586565b81146105a457600080fd5b50565b6000813590506105b681610590565b92915050565b600080604083850312156105d3576105d261030a565b5b600083013567ffffffffffffffff8111156105f1576105f061030f565b5b6105fd85828601610558565b925050602061060e858286016105a7565b9150509250929050565b61062181610334565b82525050565b600060208201905061063c6000830184610618565b92915050565b6000602082840312156106585761065761030a565b5b6000610666848285016105a7565b91505092915050565b61067881610586565b82525050565b6000602082019050610693600083018461066f565b92915050565b600081905092915050565b60006106af8261039f565b6106b98185610699565b93506106c98185602086016103bb565b80840191505092915050565b60006106e182856106a4565b91506106ed82846106a4565b91508190509392505050565b60007fff0000000000000000000000000000000000000000000000000000000000000082169050919050565b6000819050919050565b61074061073b826106f9565b610725565b82525050565b60008160601b9050919050565b600061075e82610746565b9050919050565b600061077082610753565b9050919050565b61078861078382610334565b610765565b82525050565b6000819050919050565b6107a96107a482610586565b61078e565b82525050565b6000819050919050565b6000819050919050565b6107d46107cf826107af565b6107b9565b82525050565b60006107e6828761072f565b6001820191506107f68286610777565b6014820191506108068285610798565b60208201915061081682846107c3565b60208201915081905095945050505050565b60008151905061083781610590565b92915050565b6000602082840312156108535761085261030a565b5b600061086184828501610828565b9150509291505056fe608060405234801561001057600080fd5b506040516102b83803806102b8833981810160405281019061003291906100e2565b806000806101000a81548173ffffffffffffffffffffffffffffffffffffffff021916908373ffffffffffffffffffffffffffffffffffffffff160217905550426001819055505061010f565b600080fd5b600073ffffffffffffffffffffffffffffffffffffffff82169050919050565b60006100af82610084565b9050919050565b6100bf816100a4565b81146100ca57600080fd5b50565b6000815190506100dc816100b6565b92915050565b6000602082840312156100f8576100f761007f565b5b6000610106848285016100cd565b91505092915050565b61019a8061011e6000396000f3fe608060405234801561001057600080fd5b50600436106100415760003560e01c80638da5cb5b14610046578063d8270dce14610064578063e6519a3514610082575b600080fd5b61004e6100a0565b60405161005b9190610115565b60405180910390f35b61006c6100c4565b6040516100799190610149565b60405180910390f35b61008a6100ca565b6040516100979190610149565b60405180910390f35b60008054906101000a900473ffffffffffffffffffffffffffffffffffffffff1681565b60015481565b6000600154905090565b600073ffffffffffffffffffffffffffffffffffffffff82169050919050565b60006100ff826100d4565b9050919050565b61010f816100f4565b82525050565b600060208201905061012a6000830184610106565b92915050565b6000819050919050565b61014381610130565b82525050565b600060208201905061015e600083018461013a565b9291505056fea2646970667358221220ddf841e01f13ef9cacd1b14e64bdf12d6edd585e359dbc9ee2c3e0f7f2a3705264736f6c634300081b0033a264697066735822122021c0a343e739e70d308c44a1aeb0d48e646bd856bfcb91b8d25680ec1b07d9b264736f6c634300081b0033","opcodes":"PUSH1 0x80 PUSH1 0x40 MSTORE CALLVALUE DUP1 ISZERO PUSH1 0xF JUMPI PUSH1 0x0 DUP1 REVERT JUMPDEST POP PUSH2 0xB58 DUP1 PUSH2 0x1F PUSH1 0x0 CODECOPY PUSH1 0x0 RETURN INVALID PUSH1 0x80 PUSH1 0x40 MSTORE CALLVALUE DUP1 ISZERO PUSH2 0x10 JUMPI PUSH1 0x0 DUP1 REVERT JUMPDEST POP PUSH1 0x4 CALLDATASIZE LT PUSH2 0x4C JUMPI PUSH1 0x0 CALLDATALOAD PUSH1 0xE0 SHR DUP1 PUSH4 0x24790744 EQ PUSH2 0x51 JUMPI DUP1 PUSH4 0x81176C20 EQ PUSH2 0x81 JUMPI DUP1 PUSH4 0xA5E38751 EQ PUSH2 0xB1 JUMPI DUP1 PUSH4 0xCA68675F EQ PUSH2 0xCD JUMPI JUMPDEST PUSH1 0x0 DUP1 REVERT JUMPDEST PUSH2 0x6B PUSH1 0x4 DUP1 CALLDATASIZE SUB DUP2 ADD SWAP1 PUSH2 0x66 SWAP2 SWAP1 PUSH2 0x372 JUMP JUMPDEST PUSH2 0xFD JUMP JUMPDEST PUSH1 0x40 MLOAD PUSH2 0x78 SWAP2 SWAP1 PUSH2 0x42F JUMP JUMPDEST PUSH1 0x40 MLOAD DUP1 SWAP2 SUB SWAP1 RETURN JUMPDEST PUSH2 0x9B PUSH1 0x4 DUP1 CALLDATASIZE SUB DUP2 ADD SWAP1 PUSH2 0x96 SWAP2 SWAP1 PUSH2 0x5BC JUMP JUMPDEST PUSH2 0x170 JUMP JUMPDEST PUSH1 0x40 MLOAD PUSH2 0xA8 SWAP2 SWAP1 PUSH2 0x627 JUMP JUMPDEST PUSH1 0x40 MLOAD DUP1 SWAP2 SUB SWAP1 RETURN JUMPDEST PUSH2 0xCB PUSH1 0x4 DUP1 CALLDATASIZE SUB DUP2 ADD SWAP1 PUSH2 0xC6 SWAP2 SWAP1 PUSH2 0x642 JUMP JUMPDEST PUSH2 0x1BA JUMP JUMPDEST STOP JUMPDEST PUSH2 0xE7 PUSH1 0x4 DUP1 CALLDATASIZE SUB DUP2 ADD SWAP1 PUSH2 0xE2 SWAP2 SWAP1 PUSH2 0x5BC JUMP JUMPDEST PUSH2 0x26C JUMP JUMPDEST PUSH1 0x40 MLOAD PUSH2 0xF4 SWAP2 SWAP1 PUSH2 0x67E JUMP JUMPDEST PUSH1 0x40 MLOAD DUP1 SWAP2 SUB SWAP1 RETURN JUMPDEST PUSH1 0x60 PUSH1 0x0 PUSH1 0x40 MLOAD DUP1 PUSH1 0x20 ADD PUSH2 0x111 SWAP1 PUSH2 0x2F3 JUMP JUMPDEST PUSH1 0x20 DUP3 ADD DUP2 SUB DUP3 MSTORE PUSH1 0x1F NOT PUSH1 0x1F DUP3 ADD AND PUSH1 0x40 MSTORE POP SWAP1 POP DUP1 DUP4 PUSH1 0x40 MLOAD PUSH1 0x20 ADD PUSH2 0x139 SWAP2 SWAP1 PUSH2 0x627 JUMP JUMPDEST PUSH1 0x40 MLOAD PUSH1 0x20 DUP2 DUP4 SUB SUB DUP2 MSTORE SWAP1 PUSH1 0x40 MSTORE PUSH1 0x40 MLOAD PUSH1 0x20 ADD PUSH2 0x159 SWAP3 SWAP2 SWAP1 PUSH2 0x6D5 JUMP JUMPDEST PUSH1 0x40 MLOAD PUSH1 0x20 DUP2 DUP4 SUB SUB DUP2 MSTORE SWAP1 PUSH1 0x40 MSTORE SWAP2 POP POP SWAP2 SWAP1 POP JUMP JUMPDEST PUSH1 0x0 DUP1 PUSH1 0xFF PUSH1 0xF8 SHL ADDRESS DUP5 DUP7 DUP1 MLOAD SWAP1 PUSH1 0x20 ADD KECCAK256 PUSH1 0x40 MLOAD PUSH1 0x20 ADD PUSH2 0x195 SWAP5 SWAP4 SWAP3 SWAP2 SWAP1 PUSH2 0x7DA JUMP JUMPDEST PUSH1 0x40 MLOAD PUSH1 0x20 DUP2 DUP4 SUB SUB DUP2 MSTORE SWAP1 PUSH1 0x40 MSTORE DUP1 MLOAD SWAP1 PUSH1 0x20 ADD KECCAK256 SWAP1 POP DUP1 PUSH1 0x0 SHR SWAP2 POP POP SWAP3 SWAP2 POP POP JUMP JUMPDEST PUSH1 0x0 DUP2 PUSH1 0x0 SHL CALLER PUSH1 0x40 MLOAD PUSH2 0x1CD SWAP1 PUSH2 0x2F3 JUMP JUMPDEST PUSH2 0x1D7 SWAP2 SWAP1 PUSH2 0x627 JUMP JUMPDEST DUP2 SWAP1 PUSH1 0x40 MLOAD DUP1 SWAP2 SUB SWAP1 PUSH1 0x0 CREATE2 SWAP1 POP DUP1 ISZERO DUP1 ISZERO PUSH2 0x1F7 JUMPI RETURNDATASIZE PUSH1 0x0 DUP1 RETURNDATACOPY RETURNDATASIZE PUSH1 0x0 REVERT JUMPDEST POP SWAP1 POP PUSH32 0x8FFCDC15A283D706D38281F500270D8B5A656918F555DE0913D7455E3E6BC1BF DUP2 PUSH1 0x40 MLOAD PUSH2 0x229 SWAP2 SWAP1 PUSH2 0x627 JUMP JUMPDEST PUSH1 0x40 MLOAD DUP1 SWAP2 SUB SWAP1 LOG1 PUSH32 0xB1CFAB69C6CA7BAE31881558B56C375EC1BDD5C31841376F48CA2BA772967530 DUP3 PUSH1 0x40 MLOAD PUSH2 0x260 SWAP2 SWAP1 PUSH2 0x67E JUMP JUMPDEST PUSH1 0x40 MLOAD DUP1 SWAP2 SUB SWAP1 LOG1 POP POP JUMP JUMPDEST PUSH1 0x0 DUP1 PUSH2 0x279 DUP5 DUP5 PUSH2 0x170 JUMP JUMPDEST SWAP1 POP DUP1 PUSH20 0xFFFFFFFFFFFFFFFFFFFFFFFFFFFFFFFFFFFFFFFF AND PUSH4 0xE6519A35 PUSH1 0x40 MLOAD DUP2 PUSH4 0xFFFFFFFF AND PUSH1 0xE0 SHL DUP2 MSTORE PUSH1 0x4 ADD PUSH1 0x20 PUSH1 0x40 MLOAD DUP1 DUP4 SUB DUP2 DUP7 GAS STATICCALL ISZERO DUP1 ISZERO PUSH2 0x2C6 JUMPI RETURNDATASIZE PUSH1 0x0 DUP1 RETURNDATACOPY RETURNDATASIZE PUSH1 0x0 REVERT JUMPDEST POP POP POP POP PUSH1 0x40 MLOAD RETURNDATASIZE PUSH1 0x1F NOT PUSH1 0x1F DUP3 ADD AND DUP3 ADD DUP1 PUSH1 0x40 MSTORE POP DUP2 ADD SWAP1 PUSH2 0x2EA SWAP2 SWAP1 PUSH2 0x83D JUMP JUMPDEST SWAP2 POP POP SWAP3 SWAP2 POP POP JUMP JUMPDEST PUSH2 0x2B8 DUP1 PUSH2 0x86B DUP4 CODECOPY ADD SWAP1 JUMP JUMPDEST PUSH1 0x0 PUSH1 0x40 MLOAD SWAP1 POP SWAP1 JUMP JUMPDEST PUSH1 0x0 DUP1 REVERT JUMPDEST PUSH1 0x0 DUP1 REVERT JUMPDEST PUSH1 0x0 PUSH20 0xFFFFFFFFFFFFFFFFFFFFFFFFFFFFFFFFFFFFFFFF DUP3 AND SWAP1 POP SWAP2 SWAP1 POP JUMP JUMPDEST PUSH1 0x0 PUSH2 0x33F DUP3 PUSH2 0x314 JUMP JUMPDEST SWAP1 POP SWAP2 SWAP1 POP JUMP JUMPDEST PUSH2 0x34F DUP2 PUSH2 0x334 JUMP JUMPDEST DUP2 EQ PUSH2 0x35A JUMPI PUSH1 0x0 DUP1 REVERT JUMPDEST POP JUMP JUMPDEST PUSH1 0x0 DUP2 CALLDATALOAD SWAP1 POP PUSH2 0x36C DUP2 PUSH2 0x346 JUMP JUMPDEST SWAP3 SWAP2 POP POP JUMP JUMPDEST PUSH1 0x0 PUSH1 0x20 DUP3 DUP5 SUB SLT ISZERO PUSH2 0x388 JUMPI PUSH2 0x387 PUSH2 0x30A JUMP JUMPDEST JUMPDEST PUSH1 0x0 PUSH2 0x396 DUP5 DUP3 DUP6 ADD PUSH2 0x35D JUMP JUMPDEST SWAP2 POP POP SWAP3 SWAP2 POP POP JUMP JUMPDEST PUSH1 0x0 DUP2 MLOAD SWAP1 POP SWAP2 SWAP1 POP JUMP JUMPDEST PUSH1 0x0 DUP3 DUP3 MSTORE PUSH1 0x20 DUP3 ADD SWAP1 POP SWAP3 SWAP2 POP POP JUMP JUMPDEST PUSH1 0x0 JUMPDEST DUP4 DUP2 LT ISZERO PUSH2 0x3D9 JUMPI DUP1 DUP3 ADD MLOAD DUP2 DUP5 ADD MSTORE PUSH1 0x20 DUP2 ADD SWAP1 POP PUSH2 0x3BE JUMP JUMPDEST PUSH1 0x0 DUP5 DUP5 ADD MSTORE POP POP POP POP JUMP JUMPDEST PUSH1 0x0 PUSH1 0x1F NOT PUSH1 0x1F DUP4 ADD AND SWAP1 POP SWAP2 SWAP1 POP JUMP JUMPDEST PUSH1 0x0 PUSH2 0x401 DUP3 PUSH2 0x39F JUMP JUMPDEST PUSH2 0x40B DUP2 DUP6 PUSH2 0x3AA JUMP JUMPDEST SWAP4 POP PUSH2 0x41B DUP2 DUP6 PUSH1 0x20 DUP7 ADD PUSH2 0x3BB JUMP JUMPDEST PUSH2 0x424 DUP2 PUSH2 0x3E5 JUMP JUMPDEST DUP5 ADD SWAP2 POP POP SWAP3 SWAP2 POP POP JUMP JUMPDEST PUSH1 0x0 PUSH1 0x20 DUP3 ADD SWAP1 POP DUP2 DUP2 SUB PUSH1 0x0 DUP4 ADD MSTORE PUSH2 0x449 DUP2 DUP5 PUSH2 0x3F6 JUMP JUMPDEST SWAP1 POP SWAP3 SWAP2 POP POP JUMP JUMPDEST PUSH1 0x0 DUP1 REVERT JUMPDEST PUSH1 0x0 DUP1 REVERT JUMPDEST PUSH32 0x4E487B7100000000000000000000000000000000000000000000000000000000 PUSH1 0x0 MSTORE PUSH1 0x41 PUSH1 0x4 MSTORE PUSH1 0x24 PUSH1 0x0 REVERT JUMPDEST PUSH2 0x493 DUP3 PUSH2 0x3E5 JUMP JUMPDEST DUP2 ADD DUP2 DUP2 LT PUSH8 0xFFFFFFFFFFFFFFFF DUP3 GT OR ISZERO PUSH2 0x4B2 JUMPI PUSH2 0x4B1 PUSH2 0x45B JUMP JUMPDEST JUMPDEST DUP1 PUSH1 0x40 MSTORE POP POP POP JUMP JUMPDEST PUSH1 0x0 PUSH2 0x4C5 PUSH2 0x300 JUMP JUMPDEST SWAP1 POP PUSH2 0x4D1 DUP3 DUP3 PUSH2 0x48A JUMP JUMPDEST SWAP2 SWAP1 POP JUMP JUMPDEST PUSH1 0x0 PUSH8 0xFFFFFFFFFFFFFFFF DUP3 GT ISZERO PUSH2 0x4F1 JUMPI PUSH2 0x4F0 PUSH2 0x45B JUMP JUMPDEST JUMPDEST PUSH2 0x4FA DUP3 PUSH2 0x3E5 JUMP JUMPDEST SWAP1 POP PUSH1 0x20 DUP2 ADD SWAP1 POP SWAP2 SWAP1 POP JUMP JUMPDEST DUP3 DUP2 DUP4 CALLDATACOPY PUSH1 0x0 DUP4 DUP4 ADD MSTORE POP POP POP JUMP JUMPDEST PUSH1 0x0 PUSH2 0x529 PUSH2 0x524 DUP5 PUSH2 0x4D6 JUMP JUMPDEST PUSH2 0x4BB JUMP JUMPDEST SWAP1 POP DUP3 DUP2 MSTORE PUSH1 0x20 DUP2 ADD DUP5 DUP5 DUP5 ADD GT ISZERO PUSH2 0x545 JUMPI PUSH2 0x544 PUSH2 0x456 JUMP JUMPDEST JUMPDEST PUSH2 0x550 DUP5 DUP3 DUP6 PUSH2 0x507 JUMP JUMPDEST POP SWAP4 SWAP3 POP POP POP JUMP JUMPDEST PUSH1 0x0 DUP3 PUSH1 0x1F DUP4 ADD SLT PUSH2 0x56D JUMPI PUSH2 0x56C PUSH2 0x451 JUMP JUMPDEST JUMPDEST DUP2 CALLDATALOAD PUSH2 0x57D DUP5 DUP3 PUSH1 0x20 DUP7 ADD PUSH2 0x516 JUMP JUMPDEST SWAP2 POP POP SWAP3 SWAP2 POP POP JUMP JUMPDEST PUSH1 0x0 DUP2 SWAP1 POP SWAP2 SWAP1 POP JUMP JUMPDEST PUSH2 0x599 DUP2 PUSH2 0x586 JUMP JUMPDEST DUP2 EQ PUSH2 0x5A4 JUMPI PUSH1 0x0 DUP1 REVERT JUMPDEST POP JUMP JUMPDEST PUSH1 0x0 DUP2 CALLDATALOAD SWAP1 POP PUSH2 0x5B6 DUP2 PUSH2 0x590 JUMP JUMPDEST SWAP3 SWAP2 POP POP JUMP JUMPDEST PUSH1 0x0 DUP1 PUSH1 0x40 DUP4 DUP6 SUB SLT ISZERO PUSH2 0x5D3 JUMPI PUSH2 0x5D2 PUSH2 0x30A JUMP JUMPDEST JUMPDEST PUSH1 0x0 DUP4 ADD CALLDATALOAD PUSH8 0xFFFFFFFFFFFFFFFF DUP2 GT ISZERO PUSH2 0x5F1 JUMPI PUSH2 0x5F0 PUSH2 0x30F JUMP JUMPDEST JUMPDEST PUSH2 0x5FD DUP6 DUP3 DUP7 ADD PUSH2 0x558 JUMP JUMPDEST SWAP3 POP POP PUSH1 0x20 PUSH2 0x60E DUP6 DUP3 DUP7 ADD PUSH2 0x5A7 JUMP JUMPDEST SWAP2 POP POP SWAP3 POP SWAP3 SWAP1 POP JUMP JUMPDEST PUSH2 0x621 DUP2 PUSH2 0x334 JUMP JUMPDEST DUP3 MSTORE POP POP JUMP JUMPDEST PUSH1 0x0 PUSH1 0x20 DUP3 ADD SWAP1 POP PUSH2 0x63C PUSH1 0x0 DUP4 ADD DUP5 PUSH2 0x618 JUMP JUMPDEST SWAP3 SWAP2 POP POP JUMP JUMPDEST PUSH1 0x0 PUSH1 0x20 DUP3 DUP5 SUB SLT ISZERO PUSH2 0x658 JUMPI PUSH2 0x657 PUSH2 0x30A JUMP JUMPDEST JUMPDEST PUSH1 0x0 PUSH2 0x666 DUP5 DUP3 DUP6 ADD PUSH2 0x5A7 JUMP JUMPDEST SWAP2 POP POP SWAP3 SWAP2 POP POP JUMP JUMPDEST PUSH2 0x678 DUP2 PUSH2 0x586 JUMP JUMPDEST DUP3 MSTORE POP POP JUMP JUMPDEST PUSH1 0x0 PUSH1 0x20 DUP3 ADD SWAP1 POP PUSH2 0x693 PUSH1 0x0 DUP4 ADD DUP5 PUSH2 0x66F JUMP JUMPDEST SWAP3 SWAP2 POP POP JUMP JUMPDEST PUSH1 0x0 DUP2 SWAP1 POP SWAP3 SWAP2 POP POP JUMP JUMPDEST PUSH1 0x0 PUSH2 0x6AF DUP3 PUSH2 0x39F JUMP JUMPDEST PUSH2 0x6B9 DUP2 DUP6 PUSH2 0x699 JUMP JUMPDEST SWAP4 POP PUSH2 0x6C9 DUP2 DUP6 PUSH1 0x20 DUP7 ADD PUSH2 0x3BB JUMP JUMPDEST DUP1 DUP5 ADD SWAP2 POP POP SWAP3 SWAP2 POP POP JUMP JUMPDEST PUSH1 0x0 PUSH2 0x6E1 DUP3 DUP6 PUSH2 0x6A4 JUMP JUMPDEST SWAP2 POP PUSH2 0x6ED DUP3 DUP5 PUSH2 0x6A4 JUMP JUMPDEST SWAP2 POP DUP2 SWAP1 POP SWAP4 SWAP3 POP POP POP JUMP JUMPDEST PUSH1 0x0 PUSH32 0xFF00000000000000000000000000000000000000000000000000000000000000 DUP3 AND SWAP1 POP SWAP2 SWAP1 POP JUMP JUMPDEST PUSH1 0x0 DUP2 SWAP1 POP SWAP2 SWAP1 POP JUMP JUMPDEST PUSH2 0x740 PUSH2 0x73B DUP3 PUSH2 0x6F9 JUMP JUMPDEST PUSH2 0x725 JUMP JUMPDEST DUP3 MSTORE POP POP JUMP JUMPDEST PUSH1 0x0 DUP2 PUSH1 0x60 SHL SWAP1 POP SWAP2 SWAP1 POP JUMP JUMPDEST PUSH1 0x0 PUSH2 0x75E DUP3 PUSH2 0x746 JUMP JUMPDEST SWAP1 POP SWAP2 SWAP1 POP JUMP JUMPDEST PUSH1 0x0 PUSH2 0x770 DUP3 PUSH2 0x753 JUMP JUMPDEST SWAP1 POP SWAP2 SWAP1 POP JUMP JUMPDEST PUSH2 0x788 PUSH2 0x783 DUP3 PUSH2 0x334 JUMP JUMPDEST PUSH2 0x765 JUMP JUMPDEST DUP3 MSTORE POP POP JUMP JUMPDEST PUSH1 0x0 DUP2 SWAP1 POP SWAP2 SWAP1 POP JUMP JUMPDEST PUSH2 0x7A9 PUSH2 0x7A4 DUP3 PUSH2 0x586 JUMP JUMPDEST PUSH2 0x78E JUMP JUMPDEST DUP3 MSTORE POP POP JUMP JUMPDEST PUSH1 0x0 DUP2 SWAP1 POP SWAP2 SWAP1 POP JUMP JUMPDEST PUSH1 0x0 DUP2 SWAP1 POP SWAP2 SWAP1 POP JUMP JUMPDEST PUSH2 0x7D4 PUSH2 0x7CF DUP3 PUSH2 0x7AF JUMP JUMPDEST PUSH2 0x7B9 JUMP JUMPDEST DUP3 MSTORE POP POP JUMP JUMPDEST PUSH1 0x0 PUSH2 0x7E6 DUP3 DUP8 PUSH2 0x72F JUMP JUMPDEST PUSH1 0x1 DUP3 ADD SWAP2 POP PUSH2 0x7F6 DUP3 DUP7 PUSH2 0x777 JUMP JUMPDEST PUSH1 0x14 DUP3 ADD SWAP2 POP PUSH2 0x806 DUP3 DUP6 PUSH2 0x798 JUMP JUMPDEST PUSH1 0x20 DUP3 ADD SWAP2 POP PUSH2 0x816 DUP3 DUP5 PUSH2 0x7C3 JUMP JUMPDEST PUSH1 0x20 DUP3 ADD SWAP2 POP DUP2 SWAP1 POP SWAP6 SWAP5 POP POP POP POP POP JUMP JUMPDEST PUSH1 0x0 DUP2 MLOAD SWAP1 POP PUSH2 0x837 DUP2 PUSH2 0x590 JUMP JUMPDEST SWAP3 SWAP2 POP POP JUMP JUMPDEST PUSH1 0x0 PUSH1 0x20 DUP3 DUP5 SUB SLT ISZERO PUSH2 0x853 JUMPI PUSH2 0x852 PUSH2 0x30A JUMP JUMPDEST JUMPDEST PUSH1 0x0 PUSH2 0x861 DUP5 DUP3 DUP6 ADD PUSH2 0x828 JUMP JUMPDEST SWAP2 POP POP SWAP3 SWAP2 POP POP JUMP INVALID PUSH1 0x80 PUSH1 0x40 MSTORE CALLVALUE DUP1 ISZERO PUSH2 0x10 JUMPI PUSH1 0x0 DUP1 REVERT JUMPDEST POP PUSH1 0x40 MLOAD PUSH2 0x2B8 CODESIZE SUB DUP1 PUSH2 0x2B8 DUP4 CODECOPY DUP2 DUP2 ADD PUSH1 0x40 MSTORE DUP2 ADD SWAP1 PUSH2 0x32 SWAP2 SWAP1 PUSH2 0xE2 JUMP JUMPDEST DUP1 PUSH1 0x0 DUP1 PUSH2 0x100 EXP DUP2 SLOAD DUP2 PUSH20 0xFFFFFFFFFFFFFFFFFFFFFFFFFFFFFFFFFFFFFFFF MUL NOT AND SWAP1 DUP4 PUSH20 0xFFFFFFFFFFFFFFFFFFFFFFFFFFFFFFFFFFFFFFFF AND MUL OR SWAP1 SSTORE POP TIMESTAMP PUSH1 0x1 DUP2 SWAP1 SSTORE POP POP PUSH2 0x10F JUMP JUMPDEST PUSH1 0x0 DUP1 REVERT JUMPDEST PUSH1 0x0 PUSH20 0xFFFFFFFFFFFFFFFFFFFFFFFFFFFFFFFFFFFFFFFF DUP3 AND SWAP1 POP SWAP2 SWAP1 POP JUMP JUMPDEST PUSH1 0x0 PUSH2 0xAF DUP3 PUSH2 0x84 JUMP JUMPDEST SWAP1 POP SWAP2 SWAP1 POP JUMP JUMPDEST PUSH2 0xBF DUP2 PUSH2 0xA4 JUMP JUMPDEST DUP2 EQ PUSH2 0xCA JUMPI PUSH1 0x0 DUP1 REVERT JUMPDEST POP JUMP JUMPDEST PUSH1 0x0 DUP2 MLOAD SWAP1 POP PUSH2 0xDC DUP2 PUSH2 0xB6 JUMP JUMPDEST SWAP3 SWAP2 POP POP JUMP JUMPDEST PUSH1 0x0 PUSH1 0x20 DUP3 DUP5 SUB SLT ISZERO PUSH2 0xF8 JUMPI PUSH2 0xF7 PUSH2 0x7F JUMP JUMPDEST JUMPDEST PUSH1 0x0 PUSH2 0x106 DUP5 DUP3 DUP6 ADD PUSH2 0xCD JUMP JUMPDEST SWAP2 POP POP SWAP3 SWAP2 POP POP JUMP JUMPDEST PUSH2 0x19A DUP1 PUSH2 0x11E PUSH1 0x0 CODECOPY PUSH1 0x0 RETURN INVALID PUSH1 0x80 PUSH1 0x40 MSTORE CALLVALUE DUP1 ISZERO PUSH2 0x10 JUMPI PUSH1 0x0 DUP1 REVERT JUMPDEST POP PUSH1 0x4 CALLDATASIZE LT PUSH2 0x41 JUMPI PUSH1 0x0 CALLDATALOAD PUSH1 0xE0 SHR DUP1 PUSH4 0x8DA5CB5B EQ PUSH2 0x46 JUMPI DUP1 PUSH4 0xD8270DCE EQ PUSH2 0x64 JUMPI DUP1 PUSH4 0xE6519A35 EQ PUSH2 0x82 JUMPI JUMPDEST PUSH1 0x0 DUP1 REVERT JUMPDEST PUSH2 0x4E PUSH2 0xA0 JUMP JUMPDEST PUSH1 0x40 MLOAD PUSH2 0x5B SWAP2 SWAP1 PUSH2 0x115 JUMP JUMPDEST PUSH1 0x40 MLOAD DUP1 SWAP2 SUB SWAP1 RETURN JUMPDEST PUSH2 0x6C PUSH2 0xC4 JUMP JUMPDEST PUSH1 0x40 MLOAD PUSH2 0x79 SWAP2 SWAP1 PUSH2 0x149 JUMP JUMPDEST PUSH1 0x40 MLOAD DUP1 SWAP2 SUB SWAP1 RETURN JUMPDEST PUSH2 0x8A PUSH2 0xCA JUMP JUMPDEST PUSH1 0x40 MLOAD PUSH2 0x97 SWAP2 SWAP1 PUSH2 0x149 JUMP JUMPDEST PUSH1 0x40 MLOAD DUP1 SWAP2 SUB SWAP1 RETURN JUMPDEST PUSH1 0x0 DUP1 SLOAD SWAP1 PUSH2 0x100 EXP SWAP1 DIV PUSH20 0xFFFFFFFFFFFFFFFFFFFFFFFFFFFFFFFFFFFFFFFF AND DUP2 JUMP JUMPDEST PUSH1 0x1 SLOAD DUP2 JUMP JUMPDEST PUSH1 0x0 PUSH1 0x1 SLOAD SWAP1 POP SWAP1 JUMP JUMPDEST PUSH1 0x0 PUSH20 0xFFFFFFFFFFFFFFFFFFFFFFFFFFFFFFFFFFFFFFFF DUP3 AND SWAP1 POP SWAP2 SWAP1 POP JUMP JUMPDEST PUSH1 0x0 PUSH2 0xFF DUP3 PUSH2 0xD4 JUMP JUMPDEST SWAP1 POP SWAP2 SWAP1 POP JUMP JUMPDEST PUSH2 0x10F DUP2 PUSH2 0xF4 JUMP JUMPDEST DUP3 MSTORE POP POP JUMP JUMPDEST PUSH1 0x0 PUSH1 0x20 DUP3 ADD SWAP1 POP PUSH2 0x12A PUSH1 0x0 DUP4 ADD DUP5 PUSH2 0x106 JUMP JUMPDEST SWAP3 SWAP2 POP POP JUMP JUMPDEST PUSH1 0x0 DUP2 SWAP1 POP SWAP2 SWAP1 POP JUMP JUMPDEST PUSH2 0x143 DUP2 PUSH2 0x130 JUMP JUMPDEST DUP3 MSTORE POP POP JUMP JUMPDEST PUSH1 0x0 PUSH1 0x20 DUP3 ADD SWAP1 POP PUSH2 0x15E PUSH1 0x0 DUP4 ADD DUP5 PUSH2 0x13A JUMP JUMPDEST SWAP3 SWAP2 POP POP JUMP INVALID LOG2 PUSH5 0x6970667358 0x22 SLT KECCAK256 0xDD 0xF8 COINBASE 0xE0 0x1F SGT 0xEF SWAP13 0xAC 0xD1 0xB1 0x4E PUSH5 0xBDF12D6EDD PC MCOPY CALLDATALOAD SWAP14 0xBC SWAP15 0xE2 0xC3 0xE0 0xF7 CALLCODE LOG3 PUSH17 0x5264736F6C634300081B0033A264697066 PUSH20 0x5822122021C0A343E739E70D308C44A1AEB0D48E PUSH5 0x6BD856BFCB SWAP2 0xB8 0xD2 JUMP DUP1 0xEC SHL SMOD 0xD9 0xB2 PUSH5 0x736F6C6343 STOP ADDMOD SHL STOP CALLER "},"methodIdentifiers":{"computeAddress(bytes,uint256)":"81176c20","deploy(uint256)":"a5e38751","getByteCode(address)":"24790744","predictCreationTime(bytes,uint256)":"ca68675f"}}}}}