{
  "_format": "hh-sol-artifact-1",
  "contractName": "Create2Factory",
  "sourceName": "contracts/Create2Factory.sol",
  "abi": [
    {
      "anonymous": false,
      "inputs": [
        {
          "indexed": false,
          "internalType": "address",
          "name": "addr",
          "type": "address"
        }
      ],
      "name": "ContractDeployed",
      "type": "event"
    },
    {
      "anonymous": false,
      "inputs": [
        {
          "indexed": false,
          "internalType": "uint256",
          "name": "salt",
          "type": "uint256"
        }
      ],
      "name": "saltUsed",
      "type": "event"
    },
    {
      "inputs": [
        {
          "internalType": "bytes",
          "name": "bytecode",
          "type": "bytes"
        },
        {
          "internalType": "uint256",
          "name": "_salt",
          "type": "uint256"
        }
      ],
      "name": "computeAddress",
      "outputs": [
        {
          "internalType": "address",
          "name": "",
          "type": "address"
        }
      ],
      "stateMutability": "view",
      "type": "function"
    },
    {
      "inputs": [
        {
          "internalType": "uint256",
          "name": "salt",
          "type": "uint256"
        }
      ],
      "name": "deploy",
      "outputs": [],
      "stateMutability": "nonpayable",
      "type": "function"
    },
    {
      "inputs": [
        {
          "internalType": "address",
          "name": "owner",
          "type": "address"
        }
      ],
      "name": "getByteCode",
      "outputs": [
        {
          "internalType": "bytes",
          "name": "",
          "type": "bytes"
        }
      ],
      "stateMutability": "pure",
      "type": "function"
    },
    {
      "inputs": [
        {
          "internalType": "bytes",
          "name": "bytecode",
          "type": "bytes"
        },
        {
          "internalType": "uint256",
          "name": "_salt",
          "type": "uint256"
        }
      ],
      "name": "predictCreationTime",
      "outputs": [
        {
          "internalType": "uint256",
          "name": "",
          "type": "uint256"
        }
      ],
      "stateMutability": "view",
      "type": "function"
    }
  ],
  "bytecode": "0x6080604052348015600f57600080fd5b50610b718061001f6000396000f3fe608060405234801561001057600080fd5b506004361061004c5760003560e01c8063247907441461005157806381176c2014610081578063a5e38751146100b1578063ca68675f146100cd575b600080fd5b61006b6004803603810190610066919061038b565b6100fd565b6040516100789190610448565b60405180910390f35b61009b600480360381019061009691906105d5565b610170565b6040516100a89190610640565b60405180910390f35b6100cb60048036038101906100c6919061065b565b6101ba565b005b6100e760048036038101906100e291906105d5565b610285565b6040516100f49190610697565b60405180910390f35b60606000604051806020016101119061030c565b6020820181038252601f19601f82011660405250905080836040516020016101399190610640565b6040516020818303038152906040526040516020016101599291906106ee565b604051602081830303815290604052915050919050565b60008060ff60f81b3084868051906020012060405160200161019594939291906107f3565b6040516020818303038152906040528051906020012090508060001c91505092915050565b60006101c5336100fd565b905060006101d38284610170565b90508260001b336040516101e69061030c565b6101f09190610640565b8190604051809103906000f5905080158015610210573d6000803e3d6000fd5b50507f8ffcdc15a283d706d38281f500270d8b5a656918f555de0913d7455e3e6bc1bf816040516102419190610640565b60405180910390a17fb1cfab69c6ca7bae31881558b56c375ec1bdd5c31841376f48ca2ba772967530836040516102789190610697565b60405180910390a1505050565b6000806102928484610170565b90508073ffffffffffffffffffffffffffffffffffffffff1663e6519a356040518163ffffffff1660e01b8152600401602060405180830381865afa1580156102df573d6000803e3d6000fd5b505050506040513d601f19601f820116820180604052508101906103039190610856565b91505092915050565b6102b88061088483390190565b6000604051905090565b600080fd5b600080fd5b600073ffffffffffffffffffffffffffffffffffffffff82169050919050565b60006103588261032d565b9050919050565b6103688161034d565b811461037357600080fd5b50565b6000813590506103858161035f565b92915050565b6000602082840312156103a1576103a0610323565b5b60006103af84828501610376565b91505092915050565b600081519050919050565b600082825260208201905092915050565b60005b838110156103f25780820151818401526020810190506103d7565b60008484015250505050565b6000601f19601f8301169050919050565b600061041a826103b8565b61042481856103c3565b93506104348185602086016103d4565b61043d816103fe565b840191505092915050565b60006020820190508181036000830152610462818461040f565b905092915050565b600080fd5b600080fd5b7f4e487b7100000000000000000000000000000000000000000000000000000000600052604160045260246000fd5b6104ac826103fe565b810181811067ffffffffffffffff821117156104cb576104ca610474565b5b80604052505050565b60006104de610319565b90506104ea82826104a3565b919050565b600067ffffffffffffffff82111561050a57610509610474565b5b610513826103fe565b9050602081019050919050565b82818337600083830152505050565b600061054261053d846104ef565b6104d4565b90508281526020810184848401111561055e5761055d61046f565b5b610569848285610520565b509392505050565b600082601f8301126105865761058561046a565b5b813561059684826020860161052f565b91505092915050565b6000819050919050565b6105b28161059f565b81146105bd57600080fd5b50565b6000813590506105cf816105a9565b92915050565b600080604083850312156105ec576105eb610323565b5b600083013567ffffffffffffffff81111561060a57610609610328565b5b61061685828601610571565b9250506020610627858286016105c0565b9150509250929050565b61063a8161034d565b82525050565b60006020820190506106556000830184610631565b92915050565b60006020828403121561067157610670610323565b5b600061067f848285016105c0565b91505092915050565b6106918161059f565b82525050565b60006020820190506106ac6000830184610688565b92915050565b600081905092915050565b60006106c8826103b8565b6106d281856106b2565b93506106e28185602086016103d4565b80840191505092915050565b60006106fa82856106bd565b915061070682846106bd565b91508190509392505050565b60007fff0000000000000000000000000000000000000000000000000000000000000082169050919050565b6000819050919050565b61075961075482610712565b61073e565b82525050565b60008160601b9050919050565b60006107778261075f565b9050919050565b60006107898261076c565b9050919050565b6107a161079c8261034d565b61077e565b82525050565b6000819050919050565b6107c26107bd8261059f565b6107a7565b82525050565b6000819050919050565b6000819050919050565b6107ed6107e8826107c8565b6107d2565b82525050565b60006107ff8287610748565b60018201915061080f8286610790565b60148201915061081f82856107b1565b60208201915061082f82846107dc565b60208201915081905095945050505050565b600081519050610850816105a9565b92915050565b60006020828403121561086c5761086b610323565b5b600061087a84828501610841565b9150509291505056fe608060405234801561001057600080fd5b506040516102b83803806102b8833981810160405281019061003291906100e2565b806000806101000a81548173ffffffffffffffffffffffffffffffffffffffff021916908373ffffffffffffffffffffffffffffffffffffffff160217905550426001819055505061010f565b600080fd5b600073ffffffffffffffffffffffffffffffffffffffff82169050919050565b60006100af82610084565b9050919050565b6100bf816100a4565b81146100ca57600080fd5b50565b6000815190506100dc816100b6565b92915050565b6000602082840312156100f8576100f761007f565b5b6000610106848285016100cd565b91505092915050565b61019a8061011e6000396000f3fe608060405234801561001057600080fd5b50600436106100415760003560e01c80638da5cb5b14610046578063d8270dce14610064578063e6519a3514610082575b600080fd5b61004e6100a0565b60405161005b9190610115565b60405180910390f35b61006c6100c4565b6040516100799190610149565b60405180910390f35b61008a6100ca565b6040516100979190610149565b60405180910390f35b60008054906101000a900473ffffffffffffffffffffffffffffffffffffffff1681565b60015481565b6000600154905090565b600073ffffffffffffffffffffffffffffffffffffffff82169050919050565b60006100ff826100d4565b9050919050565b61010f816100f4565b82525050565b600060208201905061012a6000830184610106565b92915050565b6000819050919050565b61014381610130565b82525050565b600060208201905061015e600083018461013a565b9291505056fea2646970667358221220ddf841e01f13ef9cacd1b14e64bdf12d6edd585e359dbc9ee2c3e0f7f2a3705264736f6c634300081b0033a2646970667358221220ba2cf34108c9eaed486672cee3d27cca32990cc306faad28c721b7a2d667ba5e64736f6c634300081b0033",
  "linkReferences": {},
  "deployedLinkReferences": {}
}